{
  "_format": "hh-sol-artifact-1",
  "contractName": "AllowListStorageReader",
  "sourceName": "src/contracts/reader/AllowListStorageReader.sol",
  "abi": [
    {
      "inputs": [
        {
          "internalType": "address[]",
          "name": "prospectiveSolvers",
          "type": "address[]"
        }
      ],
      "name": "areSolvers",
      "outputs": [
        {
          "internalType": "bool",
          "name": "",
          "type": "bool"
        }
      ],
      "stateMutability": "view",
      "type": "function"
    }
  ],
  "bytecode": "0x608060405234801561001057600080fd5b5061015b806100206000396000f3fe608060405234801561001057600080fd5b506004361061002b5760003560e01c8063bcb494bd14610030575b600080fd5b6100a06004803603602081101561004657600080fd5b81019060208101813564010000000081111561006157600080fd5b82018360208201111561007357600080fd5b8035906020019184602083028401116401000000008311171561009557600080fd5b5090925090506100b4565b604080519115158252519081900360200190f35b6000805b8281101561011957600160008585848181106100d057fe5b6020908102929092013573ffffffffffffffffffffffffffffffffffffffff168352508101919091526040016000205460ff1661011157600091505061011f565b6001016100b8565b50600190505b9291505056fea2646970667358221220bda77f482d695543b0544ee62d34ad5e4971def74c48b7a506f137b2e46f8de964736f6c63430007060033",
  "linkReferences": {},
  "deployedLinkReferences": {}
}