{
  "_format": "hh-sol-artifact-1",
  "contractName": "GPv2VaultRelayer",
  "sourceName": "src/contracts/GPv2VaultRelayer.sol",
  "abi": [
    {
      "inputs": [
        {
          "internalType": "contract IVault",
          "name": "vault_",
          "type": "address"
        }
      ],
      "stateMutability": "nonpayable",
      "type": "constructor"
    },
    {
      "inputs": [
        {
          "internalType": "enum IVault.SwapKind",
          "name": "kind",
          "type": "uint8"
        },
        {
          "components": [
            {
              "internalType": "bytes32",
              "name": "poolId",
              "type": "bytes32"
            },
            {
              "internalType": "uint256",
              "name": "assetInIndex",
              "type": "uint256"
            },
            {
              "internalType": "uint256",
              "name": "assetOutIndex",
              "type": "uint256"
            },
            {
              "internalType": "uint256",
              "name": "amount",
              "type": "uint256"
            },
            {
              "internalType": "bytes",
              "name": "userData",
              "type": "bytes"
            }
          ],
          "internalType": "struct IVault.BatchSwapStep[]",
          "name": "swaps",
          "type": "tuple[]"
        },
        {
          "internalType": "contract IERC20[]",
          "name": "tokens",
          "type": "address[]"
        },
        {
          "components": [
            {
              "internalType": "address",
              "name": "sender",
              "type": "address"
            },
            {
              "internalType": "bool",
              "name": "fromInternalBalance",
              "type": "bool"
            },
            {
              "internalType": "address payable",
              "name": "recipient",
              "type": "address"
            },
            {
              "internalType": "bool",
              "name": "toInternalBalance",
              "type": "bool"
            }
          ],
          "internalType": "struct IVault.FundManagement",
          "name": "funds",
          "type": "tuple"
        },
        {
          "internalType": "int256[]",
          "name": "limits",
          "type": "int256[]"
        },
        {
          "internalType": "uint256",
          "name": "deadline",
          "type": "uint256"
        },
        {
          "components": [
            {
              "internalType": "address",
              "name": "account",
              "type": "address"
            },
            {
              "internalType": "contract IERC20",
              "name": "token",
              "type": "address"
            },
            {
              "internalType": "uint256",
              "name": "amount",
              "type": "uint256"
            },
            {
              "internalType": "bytes32",
              "name": "balance",
              "type": "bytes32"
            }
          ],
          "internalType": "struct GPv2Transfer.Data",
          "name": "feeTransfer",
          "type": "tuple"
        }
      ],
      "name": "batchSwapWithFee",
      "outputs": [
        {
          "internalType": "int256[]",
          "name": "tokenDeltas",
          "type": "int256[]"
        }
      ],
      "stateMutability": "nonpayable",
      "type": "function"
    },
    {
      "inputs": [
        {
          "components": [
            {
              "internalType": "address",
              "name": "account",
              "type": "address"
            },
            {
              "internalType": "contract IERC20",
              "name": "token",
              "type": "address"
            },
            {
              "internalType": "uint256",
              "name": "amount",
              "type": "uint256"
            },
            {
              "internalType": "bytes32",
              "name": "balance",
              "type": "bytes32"
            }
          ],
          "internalType": "struct GPv2Transfer.Data[]",
          "name": "transfers",
          "type": "tuple[]"
        }
      ],
      "name": "transferFromAccounts",
      "outputs": [],
      "stateMutability": "nonpayable",
      "type": "function"
    }
  ],
  "bytecode": "0x60c060405234801561001057600080fd5b5060405161129e38038061129e83398101604081905261002f9161004b565b33606090811b6080521b6001600160601b03191660a052610079565b60006020828403121561005c578081fd5b81516001600160a01b0381168114610072578182fd5b9392505050565b60805160601c60a05160601c6111ee6100b060003980610130528061020152806102bd5250806093528061024c52506111ee6000f3fe608060405234801561001057600080fd5b50600436106100365760003560e01c80634817a2861461003b5780637d10d11f14610064575b600080fd5b61004e610049366004610cd9565b610079565b60405161005b9190610eb3565b60405180910390f35b610077610072366004610c69565b610234565b005b60603373ffffffffffffffffffffffffffffffffffffffff7f000000000000000000000000000000000000000000000000000000000000000016146100f3576040517f08c379a00000000000000000000000000000000000000000000000000000000081526004016100ea906110e5565b60405180910390fd5b6040517f945bcec900000000000000000000000000000000000000000000000000000000815273ffffffffffffffffffffffffffffffffffffffff7f0000000000000000000000000000000000000000000000000000000000000000169063945bcec990610171908c908c908c908c908c908c908c90600401610f59565b600060405180830381600087803b15801561018b57600080fd5b505af115801561019f573d6000803e3d6000fd5b505050506040513d6000823e601f3d9081017fffffffffffffffffffffffffffffffffffffffffffffffffffffffffffffffe01682016040526101e59190810190610bd9565b905061022873ffffffffffffffffffffffffffffffffffffffff7f00000000000000000000000000000000000000000000000000000000000000001683336102e9565b98975050505050505050565b3373ffffffffffffffffffffffffffffffffffffffff7f000000000000000000000000000000000000000000000000000000000000000016146102a3576040517f08c379a00000000000000000000000000000000000000000000000000000000081526004016100ea906110e5565b6102e573ffffffffffffffffffffffffffffffffffffffff7f000000000000000000000000000000000000000000000000000000000000000016838333610551565b5050565b73eeeeeeeeeeeeeeeeeeeeeeeeeeeeeeeeeeeeeeee61030e6040840160208501610bb6565b73ffffffffffffffffffffffffffffffffffffffff16141561035c576040517f08c379a00000000000000000000000000000000000000000000000000000000081526004016100ea9061111c565b7f5a28e9363bb942b639270062aa6bb295f434bcdfc42c97267bf003f272060dc9826060013514156103d0576103cb6103986020840184610bb6565b82604085018035906103ad9060208801610bb6565b73ffffffffffffffffffffffffffffffffffffffff16929190610816565b61054c565b604080516001808252818301909252600091816020015b6103ef6109cb565b8152602001906001900390816103e757905050905060008160008151811061041357fe5b602002602001015190507fabee3b73373acd583a130924aad6dc38cfdc44ba0555ba94ce2ff63980ea063284606001351461044f576002610452565b60035b8190600381111561045f57fe5b9081600381111561046c57fe5b90525061047f6040850160208601610bb6565b73ffffffffffffffffffffffffffffffffffffffff16602080830191909152604080860135908301526104b490850185610bb6565b73ffffffffffffffffffffffffffffffffffffffff908116606083015283811660808301526040517f0e8e3e8400000000000000000000000000000000000000000000000000000000815290861690630e8e3e8490610517908590600401610ec6565b600060405180830381600087803b15801561053157600080fd5b505af1158015610545573d6000803e3d6000fd5b5050505050505b505050565b60008267ffffffffffffffff8111801561056a57600080fd5b506040519080825280602002602001820160405280156105a457816020015b6105916109cb565b8152602001906001900390816105895790505b5090506000805b8481101561077857368686838181106105c057fe5b60800291909101915073eeeeeeeeeeeeeeeeeeeeeeeeeeeeeeeeeeeeeeee90506105f06040830160208401610bb6565b73ffffffffffffffffffffffffffffffffffffffff16141561063e576040517f08c379a00000000000000000000000000000000000000000000000000000000081526004016100ea9061111c565b7f5a28e9363bb942b639270062aa6bb295f434bcdfc42c97267bf003f272060dc9816060013514156106945761068f61067a6020830183610bb6565b86604084018035906103ad9060208701610bb6565b61076f565b60008484806001019550815181106106a857fe5b602002602001015190507fabee3b73373acd583a130924aad6dc38cfdc44ba0555ba94ce2ff63980ea06328260600135146106e45760016106e7565b60035b819060038111156106f457fe5b9081600381111561070157fe5b9052506107146040830160208401610bb6565b73ffffffffffffffffffffffffffffffffffffffff166020808301919091526040808401359083015261074990830183610bb6565b73ffffffffffffffffffffffffffffffffffffffff908116606083015286166080909101525b506001016105ab565b50801561080e5761078982826108fd565b6040517f0e8e3e8400000000000000000000000000000000000000000000000000000000815273ffffffffffffffffffffffffffffffffffffffff871690630e8e3e84906107db908590600401610ec6565b600060405180830381600087803b1580156107f557600080fd5b505af1158015610809573d6000803e3d6000fd5b505050505b505050505050565b6040517f23b872dd0000000000000000000000000000000000000000000000000000000080825273ffffffffffffffffffffffffffffffffffffffff8581166004840152841660248301526044820183905290600080606483828a5af1610881573d6000803e3d6000fd5b5061088b85610901565b6108f657604080517f08c379a000000000000000000000000000000000000000000000000000000000815260206004820152601960248201527f475076323a206661696c6564207472616e7366657246726f6d00000000000000604482015290519081900360640190fd5b5050505050565b9052565b600061093f565b7f08c379a0000000000000000000000000000000000000000000000000000000006000526020600452806024528160445260646000fd5b3d801561097e57602081146109b8576109797f475076323a206d616c666f726d6564207472616e7366657220726573756c7400601f610908565b6109c5565b823b6109af576109af7f475076323a206e6f74206120636f6e74726163740000000000000000000000006014610908565b600191506109c5565b3d6000803e600051151591505b50919050565b6040805160a081019091528060008152600060208201819052604082018190526060820181905260809091015290565b600082601f830112610a0b578081fd5b81356020610a20610a1b83611175565b611151565b8281528181019085830183850287018401881015610a3c578586fd5b855b85811015610a63578135610a5181611193565b84529284019290840190600101610a3e565b5090979650505050505050565b600082601f830112610a80578081fd5b81356020610a90610a1b83611175565b8281528181019085830183850287018401881015610aac578586fd5b855b85811015610a6357813584529284019290840190600101610aae565b60008083601f840112610adb578182fd5b50813567ffffffffffffffff811115610af2578182fd5b6020830191508360208083028501011115610b0c57600080fd5b9250929050565b80358015158114610b2357600080fd5b919050565b6000608082840312156109c5578081fd5b600060808284031215610b4a578081fd5b6040516080810181811067ffffffffffffffff82111715610b6757fe5b6040529050808235610b7881611193565b8152610b8660208401610b13565b60208201526040830135610b9981611193565b6040820152610baa60608401610b13565b60608201525092915050565b600060208284031215610bc7578081fd5b8135610bd281611193565b9392505050565b60006020808385031215610beb578182fd5b825167ffffffffffffffff811115610c01578283fd5b8301601f81018513610c11578283fd5b8051610c1f610a1b82611175565b8181528381019083850185840285018601891015610c3b578687fd5b8694505b83851015610c5d578051835260019490940193918501918501610c3f565b50979650505050505050565b60008060208385031215610c7b578081fd5b823567ffffffffffffffff80821115610c92578283fd5b818501915085601f830112610ca5578283fd5b813581811115610cb3578384fd5b866020608083028501011115610cc7578384fd5b60209290920196919550909350505050565b6000806000806000806000806101a0898b031215610cf5578384fd5b883560028110610d03578485fd5b9750602089013567ffffffffffffffff80821115610d1f578586fd5b610d2b8c838d01610aca565b909950975060408b0135915080821115610d43578586fd5b610d4f8c838d016109fb565b9650610d5e8c60608d01610b39565b955060e08b0135915080821115610d73578485fd5b50610d808b828c01610a70565b9350506101008901359150610d998a6101208b01610b28565b90509295985092959890939650565b6000815180845260208085019450808401835b83811015610ded57815173ffffffffffffffffffffffffffffffffffffffff1687529582019590820190600101610dbb565b509495945050505050565b6000815180845260208085019450808401835b83811015610ded57815187529582019590820190600101610e0b565b600082845282826020860137806020848601015260207fffffffffffffffffffffffffffffffffffffffffffffffffffffffffffffffe0601f85011685010190509392505050565b73ffffffffffffffffffffffffffffffffffffffff808251168352602082015115156020840152806040830151166040840152506060810151151560608301525050565b600060208252610bd26020830184610df8565b602080825282518282018190526000919060409081850190868401855b82811015610f4c578151805160048110610ef957fe5b85528087015173ffffffffffffffffffffffffffffffffffffffff908116888701528682015187870152606080830151821690870152608091820151169085015260a09093019290850190600101610ee3565b5091979650505050505050565b600061012080830160028b10610f6b57fe5b8a8452602080850192909252889052610140808401918981028501909101908a845b8b811015611098577ffffffffffffffffffffffffffffffffffffffffffffffffffffffffffffffec087850301855281357fffffffffffffffffffffffffffffffffffffffffffffffffffffffffffffff618e3603018112610fed578687fd5b8d01803585528381013584860152604080820135908601526060808201359086015260a0608080830135368490037fffffffffffffffffffffffffffffffffffffffffffffffffffffffffffffffe101811261104757898afd5b8301803567ffffffffffffffff81111561105f578a8bfd5b80360385131561106d578a8bfd5b83838a0152611081848a01828a8501610e27565b998801999850505093850193505050600101610f8d565b50505083810360408501526110ad8189610da8565b9150506110bd6060840187610e6f565b82810360e08401526110cf8186610df8565b9150508261010083015298975050505050505050565b60208082526011908201527f475076323a206e6f742063726561746f72000000000000000000000000000000604082015260600190565b6020808252818101527f475076323a2063616e6e6f74207472616e73666572206e617469766520455448604082015260600190565b60405181810167ffffffffffffffff8111828210171561116d57fe5b604052919050565b600067ffffffffffffffff82111561118957fe5b5060209081020190565b73ffffffffffffffffffffffffffffffffffffffff811681146111b557600080fd5b5056fea26469706673582212201574529333633305b696faec1270e932273707b6df21a671ce47008058baf32e64736f6c63430007060033",
  "linkReferences": {},
  "deployedLinkReferences": {}
}