{
  "_format": "hh-sol-artifact-1",
  "contractName": "StorageAccessible",
  "sourceName": "src/contracts/mixins/StorageAccessible.sol",
  "abi": [
    {
      "inputs": [
        {
          "internalType": "uint256",
          "name": "offset",
          "type": "uint256"
        },
        {
          "internalType": "uint256",
          "name": "length",
          "type": "uint256"
        }
      ],
      "name": "getStorageAt",
      "outputs": [
        {
          "internalType": "bytes",
          "name": "",
          "type": "bytes"
        }
      ],
      "stateMutability": "view",
      "type": "function"
    },
    {
      "inputs": [
        {
          "internalType": "address",
          "name": "targetContract",
          "type": "address"
        },
        {
          "internalType": "bytes",
          "name": "calldataPayload",
          "type": "bytes"
        }
      ],
      "name": "simulateDelegatecall",
      "outputs": [
        {
          "internalType": "bytes",
          "name": "response",
          "type": "bytes"
        }
      ],
      "stateMutability": "nonpayable",
      "type": "function"
    },
    {
      "inputs": [
        {
          "internalType": "address",
          "name": "targetContract",
          "type": "address"
        },
        {
          "internalType": "bytes",
          "name": "calldataPayload",
          "type": "bytes"
        }
      ],
      "name": "simulateDelegatecallInternal",
      "outputs": [
        {
          "internalType": "bytes",
          "name": "response",
          "type": "bytes"
        }
      ],
      "stateMutability": "nonpayable",
      "type": "function"
    }
  ],
  "bytecode": "0x608060405234801561001057600080fd5b506106dd806100206000396000f3fe608060405234801561001057600080fd5b50600436106100415760003560e01c806343218e19146100465780635624b25b1461017e578063f84436bd146101a1575b600080fd5b6101096004803603604081101561005c57600080fd5b73ffffffffffffffffffffffffffffffffffffffff823516919081019060408101602082013564010000000081111561009457600080fd5b8201836020820111156100a657600080fd5b803590602001918460018302840111640100000000831117156100c857600080fd5b91908080601f016020809104026020016040519081016040528093929190818152602001838380828437600092019190915250929550610264945050505050565b6040805160208082528351818301528351919283929083019185019080838360005b8381101561014357818101518382015260200161012b565b50505050905090810190601f1680156101705780820380516001836020036101000a031916815260200191505b509250505060405180910390f35b6101096004803603604081101561019457600080fd5b50803590602001356103dc565b610109600480360360408110156101b757600080fd5b73ffffffffffffffffffffffffffffffffffffffff82351691908101906040810160208201356401000000008111156101ef57600080fd5b82018360208201111561020157600080fd5b8035906020019184600183028401116401000000008311171561022357600080fd5b91908080601f016020809104026020016040519081016040528093929190818152602001838380828437600092019190915250929550610452945050505050565b606060008373ffffffffffffffffffffffffffffffffffffffff16836040518082805190602001908083835b602083106102cd57805182527fffffffffffffffffffffffffffffffffffffffffffffffffffffffffffffffe09092019160209182019101610290565b6001836020036101000a038019825116818451168082178552505050505050905001915050600060405180830381855af49150503d806000811461032d576040519150601f19603f3d011682016040523d82523d6000602084013e610332565b606091505b5080935081925050506103d582826040516020018083805190602001908083835b6020831061039057805182527fffffffffffffffffffffffffffffffffffffffffffffffffffffffffffffffe09092019160209182019101610353565b6001836020036101000a03801982511681845116808217855250505050505090500182151560f81b81526001019250505060405160208183030381529060405261069b565b5092915050565b606060008260200267ffffffffffffffff811180156103fa57600080fd5b506040519080825280601f01601f191660200182016040528015610425576020820181803683370190505b50905060005b83811015610448578481015460208083028401015260010161042b565b5090505b92915050565b606060006343218e1960e01b8484604051602401808373ffffffffffffffffffffffffffffffffffffffff16815260200180602001828103825283818151815260200191508051906020019080838360005b838110156104bc5781810151838201526020016104a4565b50505050905090810190601f1680156104e95780820380516001836020036101000a031916815260200191505b50604080517fffffffffffffffffffffffffffffffffffffffffffffffffffffffffffffffe08184030181529181526020820180517bffffffffffffffffffffffffffffffffffffffffffffffffffffffff167fffffffff00000000000000000000000000000000000000000000000000000000909816979097178752518151919750309688965090945084935091508083835b602083106105ba57805182527fffffffffffffffffffffffffffffffffffffffffffffffffffffffffffffffe0909201916020918201910161057d565b6001836020036101000a0380198251168184511680821785525050505050509050019150506000604051808303816000865af19150503d806000811461061c576040519150601f19603f3d011682016040523d82523d6000602084013e610621565b606091505b5090508092505060008260018451038151811061063a57fe5b602001015160f81c60f81b7effffffffffffffffffffffffffffffffffffffffffffffffffffffffffffff1916600160f81b14905061067d8360018551036106a3565b801561068a57505061044c565b6106938361069b565b505092915050565b805160208201fd5b905256fea26469706673582212203a1398f4544fde6fc253e7e5ad8c719e00a7ea89a31b8c72524089a899ef205064736f6c63430007060033",
  "linkReferences": {},
  "deployedLinkReferences": {}
}